:100000000C9446000C9465000C9465000C946500FB
:100010000C9465000C9465000C9465000C946500CC
:100020000C9465000C9465000C9465000C946500BC
:100030000C9465000C9465000C9465000C946500AC
:100040000C9465000C9465000C9465000C9465009C
:100050000C9465000C9465000C9465000C9465008C
:100060000C9465000C9465000C9465000C9465007C
:100070000C9465000C9465000C9465000C9465006C
:100080000C9465000C9465000C94650011241FBE4F
:10009000CFEFD0E4DEBFCDBF11E0A0E0B1E0EAE8F1
:1000A000F2E000E00BBF02C007900D92A631B1074D
:1000B000D9F721E0A6E1B1E001C01D92A931B20754
:1000C000E1F70E9424010C9443010C940000CF93AB
:1000D000DF9300D01F92CDB7DEB789837B836A831D
:1000E00089818A3031F48A819B81BC018DE00E9434
:1000F000670080EC90E0FC018081882F90E08072A6
:100100009927892BB1F386EC90E02981FC012083AB
:1001100080E090E00F900F900F90DF91CF910895C5
:10012000CF93DF93CDB7DEB780E290E0FC01808112
:100130008095DF91CF910895CF93DF93CDB7DEB750
:100140000E9490008170DF91CF910895CF93DF934B
:10015000CDB7DEB7809117019091180181309105DC
:1001600081F08130910530F082309105E1F0039704
:1001700009F132C081E090E090931801809317015B
:100180002BC00E949C00882339F481E090E090937A
:1001900018018093170120C082E090E0909318012D
:1001A0008093170119C083E090E090931801809329
:1001B000170112C00E949C00882339F481E090E06E
:1001C000909318018093170106C083E090E090930C
:1001D0001801809317010000809117019091180178
:1001E0008130910561F18130910518F0029741F05D
:1001F00027C085E290E0FC0110821092160120C019
:100200009091160180911401981790F485E290E086
:1002100020911601222F30E0225F3E4FF90120810C
:10022000FC012083809116018F5F8093160108C026
:1002300085E290E0FC0110821092160101C00000DE
:100240000000DF91CF910895CF93DF93CDB7DEB754
:1002500081E290E0FC01108282E290E02FEFFC014D
:10026000208384E290E02FEFFC01208385E290E080
:10027000FC011082109218011092170110921601C1
:0A0280000E94A600FDCFF894FFCF06
:10028A0000000002000000006700000000000102F8
:06029A000408102006001C
:00000001FF
